{
    "contractName": "Transaction",
    "abi": [
        {
            "anonymous": false,
            "inputs": [
                {
                    "indexed": false,
                    "internalType": "address",
                    "name": "from",
                    "type": "address"
                },
                {
                    "indexed": false,
                    "internalType": "address",
                    "name": "receiver",
                    "type": "address"
                },
                {
                    "indexed": false,
                    "internalType": "string",
                    "name": "user_id",
                    "type": "string"
                },
                {
                    "indexed": false,
                    "internalType": "string",
                    "name": "election_id",
                    "type": "string"
                },
                {
                    "indexed": false,
                    "internalType": "string",
                    "name": "candidate_id",
                    "type": "string"
                },
                {
                    "indexed": false,
                    "internalType": "uint256",
                    "name": "timestamp",
                    "type": "uint256"
                }
            ],
            "name": "Transfer",
            "type": "event"
        },
        {
            "inputs": [
                {
                    "internalType": "address payable",
                    "name": "receiver",
                    "type": "address"
                },
                {
                    "internalType": "string",
                    "name": "user_id",
                    "type": "string"
                },
                {
                    "internalType": "string",
                    "name": "election_id",
                    "type": "string"
                },
                {
                    "internalType": "string",
                    "name": "candidate_id",
                    "type": "string"
                }
            ],
            "name": "addToBlockchain",
            "outputs": [],
            "stateMutability": "nonpayable",
            "type": "function"
        },
        {
            "inputs": [],
            "name": "getAllTransaction",
            "outputs": [
                {
                    "components": [
                        {
                            "internalType": "address",
                            "name": "from",
                            "type": "address"
                        },
                        {
                            "internalType": "address",
                            "name": "receiver",
                            "type": "address"
                        },
                        {
                            "internalType": "string",
                            "name": "user_id",
                            "type": "string"
                        },
                        {
                            "internalType": "string",
                            "name": "election_id",
                            "type": "string"
                        },
                        {
                            "internalType": "string",
                            "name": "candidate_id",
                            "type": "string"
                        },
                        {
                            "internalType": "uint256",
                            "name": "timestamp",
                            "type": "uint256"
                        }
                    ],
                    "internalType": "struct Transaction.TransactionStruct[]",
                    "name": "",
                    "type": "tuple[]"
                }
            ],
            "stateMutability": "view",
            "type": "function",
            "constant": true
        },
        {
            "inputs": [],
            "name": "getTransactionCount",
            "outputs": [
                {
                    "internalType": "uint256",
                    "name": "",
                    "type": "uint256"
                }
            ],
            "stateMutability": "view",
            "type": "function",
            "constant": true
        }
    ],
    "bytecode": "0x608060405234801561001057600080fd5b5061096f806100206000396000f3fe608060405234801561001057600080fd5b506004361061005d577c0100000000000000000000000000000000000000000000000000000000600035046325ecc6e081146100625780632e7700f014610077578063add6415d1461008d575b600080fd5b610075610070366004610549565b6100a2565b005b6000546040519081526020015b60405180910390f35b61009561023e565b6040516100849190610643565b60016000808282546100b4919061071c565b90915550506040805160c08101825233815273ffffffffffffffffffffffffffffffffffffffff8681166020830190815292820186815260608301869052608083018590524260a0840152600180548082018255600091909152835160069091027fb10e2d527612073b26eecdfd717e6a320cf44b4afac2b0732d9fcbe2b7fa0cf68101805492851673ffffffffffffffffffffffffffffffffffffffff1993841617815595517fb10e2d527612073b26eecdfd717e6a320cf44b4afac2b0732d9fcbe2b7fa0cf78201805491909516921691909117909255519192917fb10e2d527612073b26eecdfd717e6a320cf44b4afac2b0732d9fcbe2b7fa0cf8909101906101c09082610800565b50606082015160038201906101d59082610800565b50608082015160048201906101ea9082610800565b5060a0820151816005015550507fc2a008061ffd24e1e90903faea6d67542ba54406f86b22a777a70e5627413907338585858542604051610230969594939291906108c6565b60405180910390a150505050565b60606001805480602002602001604051908101604052809291908181526020016000905b828210156104845760008481526020908190206040805160c08101825260068602909201805473ffffffffffffffffffffffffffffffffffffffff908116845260018201541693830193909352600283018054929392918401916102c59061075c565b80601f01602080910402602001604051908101604052809291908181526020018280546102f19061075c565b801561033e5780601f106103135761010080835404028352916020019161033e565b820191906000526020600020905b81548152906001019060200180831161032157829003601f168201915b505050505081526020016003820180546103579061075c565b80601f01602080910402602001604051908101604052809291908181526020018280546103839061075c565b80156103d05780601f106103a5576101008083540402835291602001916103d0565b820191906000526020600020905b8154815290600101906020018083116103b357829003601f168201915b505050505081526020016004820180546103e99061075c565b80601f01602080910402602001604051908101604052809291908181526020018280546104159061075c565b80156104625780601f1061043757610100808354040283529160200191610462565b820191906000526020600020905b81548152906001019060200180831161044557829003601f168201915b5050505050815260200160058201548152505081526020019060010190610262565b50505050905090565b7f4e487b7100000000000000000000000000000000000000000000000000000000600052604160045260246000fd5b600082601f8301126104cd57600080fd5b813567ffffffffffffffff808211156104e8576104e861048d565b604051601f8301601f19908116603f011681019082821181831017156105105761051061048d565b8160405283815286602085880101111561052957600080fd5b836020870160208301376000602085830101528094505050505092915050565b6000806000806080858703121561055f57600080fd5b843573ffffffffffffffffffffffffffffffffffffffff8116811461058357600080fd5b9350602085013567ffffffffffffffff808211156105a057600080fd5b6105ac888389016104bc565b945060408701359150808211156105c257600080fd5b6105ce888389016104bc565b935060608701359150808211156105e457600080fd5b506105f1878288016104bc565b91505092959194509250565b6000815180845260005b8181101561062357602081850181015186830182015201610607565b506000602082860101526020601f19601f83011685010191505092915050565b60208082528251828201819052600091906040908185019080840286018301878501865b8381101561070e57603f19898403018552815160c073ffffffffffffffffffffffffffffffffffffffff808351168652808a840151168a870152508782015181898701526106b7828701826105fd565b915050606080830151868303828801526106d183826105fd565b92505050608080830151868303828801526106ec83826105fd565b60a0948501519790940196909652505094870194925090860190600101610667565b509098975050505050505050565b80820180821115610756577f4e487b7100000000000000000000000000000000000000000000000000000000600052601160045260246000fd5b92915050565b60028104600182168061077057607f821691505b6020821081036107a9577f4e487b7100000000000000000000000000000000000000000000000000000000600052602260045260246000fd5b50919050565b601f8211156107fb5760008160005260206000206020601f860104810160208610156107d85750805b6020601f860104820191505b818110156107f7578281556001016107e4565b5050505b505050565b815167ffffffffffffffff81111561081a5761081a61048d565b61082e81610828845461075c565b846107af565b602080601f831160018114610867576000841561084b5750858301515b60028086026008870290910a60001904198216178655506107f7565b600085815260208120601f198616915b8281101561089657888601518255948401946001909101908401610877565b50858210156108b657878501516008601f88160260020a60001904191681555b5050505050600202600101905550565b600073ffffffffffffffffffffffffffffffffffffffff808916835280881660208401525060c060408301526108ff60c08301876105fd565b828103606084015261091181876105fd565b9050828103608084015261092581866105fd565b9150508260a083015297965050505050505056fea264697066735822122064428ebd9ced266e4d5fc034a22bd40e85be27aa821c4d736c5c8ee9f74774d464736f6c63430008160033",
    "immutableReferences": {},
    "source": "// SPDX-License-Identifier: UNLICENSED\r\npragma solidity ^0.8.0;\r\n\r\ncontract Transaction{\r\n    uint256 transactionCounter;\r\n\r\n    event Transfer(address from,address receiver,string user_id,string election_id,string candidate_id,uint timestamp);\r\n\r\n    struct TransactionStruct {\r\n        address from;\r\n        address receiver;\r\n        string user_id;\r\n        string election_id;\r\n        string candidate_id;\r\n        uint timestamp;\r\n    }\r\n\r\n    TransactionStruct[] transactions;\r\n\r\n    function addToBlockchain(address payable receiver,string memory user_id,string memory election_id,string memory candidate_id) public {\r\n        transactionCounter+=1;\r\n        transactions.push(TransactionStruct(msg.sender,receiver,user_id,election_id,candidate_id,block.timestamp));\r\n\r\n        emit Transfer(msg.sender,receiver,user_id,election_id,candidate_id,block.timestamp);\r\n    }\r\n\r\n    function getAllTransaction() public view returns (TransactionStruct[] memory){\r\n        return transactions;\r\n    }\r\n\r\n    function getTransactionCount() public view returns (uint256){\r\n        return transactionCounter;\r\n    }\r\n\r\n}",
    "sourcePath": "C:\\Users\\Deepak Tripathy\\Desktop\\EVS\\smart_contract\\contracts\\Transaction.sol",
    "compiler": {
        "name": "solc",
        "version": "0.8.22+commit.4fc1097e.Emscripten.clang"
    },
    "schemaVersion": "3.4.16",
    "updatedAt": "2023-10-26T07:47:27.644Z",
    "networkType": "ethereum",
    "devdoc": {
        "kind": "dev",
        "methods": {},
        "version": 1
    },
    "userdoc": {
        "kind": "user",
        "methods": {},
        "version": 1
    }
}